:1000000012C022C021C020C01FC01EC01DC01CC005
:100010001BC01AC019C018C017C016C015C014C024
:1000200013C012C011C011241FBECFEDCDBF10E010
:10003000A0E6B0E0E6E9F0E002C005900D92A83736
:10004000B107D9F715D025C0DBCF811101C0959834
:100050000895811101C0959A089507C0E9EFF0E075
:100060003197F1F700C0000081508111F7CF08955A
:100070008D9A8C9A9598949880E0E7DF8FEFEDDF6A
:100080008FEFEBDF80E0E5DF8FEFE7DF8FEFE5DF7E
:06009000F3CFF894FFCF4E
:10009600596F75722070726F6772616D2068617337
:0800A600206C69657320210044
:00000001FF
