:100000001AC032C031C030C02FC09BC02DC02CC020
:100010002BC02AC029C028C027C0EEC025C024C0DC
:1000200023C022C021C0C400C800CC00D400DC0022
:10003000E400EC00F40011241FBECFEDCDBF10E0B2
:10004000A0E6B0E0ECEDF2E002C005900D92A83918
:10005000B107D9F710E0A8E9B0E001C01D92A33ABA
:10006000B107E1F730D138C1CBCF07C0E9EFF0E0FD
:100070003197F1F700C0000081508111F7CF08954A
:10008000892B19F4CFEFD0E002C0CBE4D0E08C9AFA
:100090008D9A8C2FEADF9498959A8C2FE6DF9598AD
:1000A000949AF7CF91B321E030E0082E01C0220FDF
:1000B0000A94EAF7672B21F42095292321BB0895A0
:1000C000922B91BB0895CF93DF932FEF21BBEC01CF
:1000D00084E0CC0FDD1F8A95E1F7C05ADF4F6881BD
:1000E000798182E090E0DEDF6A817B8183E090E0CD
:1000F000D9DF6C817D8184E090E0D4DF6E817F81E7
:1001000085E090E0CFDF888580FD929A80FF92980D
:100110008A8580FD939A80FF93988C8580FD949AC0
:1001200080FF94988E8580FD959A80FF9598DF9149
:10013000CF9108951FBC84E08EBD89B7806889BFC8
:1001400008951F920F920FB60F9211248F938091F2
:100150009A0080FD929A80FF929880919A008695ED
:10016000817080FD939A80FF939880919A0082FB22
:10017000882780F980FD949A80FF94988F910F9042
:100180000FBE0F901F9018958AE080939B000895F2
:100190008AE080939C00089582B391E0892782BB16
:1001A0008AE080939D00089582B392E0892782BB04
:1001B00084E180939E00089582B394E0892782BBF6
:1001C0008EE180939F00089582B398E0892782BBD7
:1001D00088E28093A000089582B390E1892782BBD2
:1001E00082E38093A100089582B390E2892782BBC5
:1001F0008CE38093A20008951F920F920FB60F9286
:1002000011248F93809199008F5F809399008A3099
:1002100029F481E080939800109299008F910F90BB
:100220000FBE0F901F901895CF93DF93CDB7DD27AA
:10023000C850CDBF8FE381BB82E080BF89E186BF1C
:1002400081E089BF83E083BF88E0E0E9F0E0DE0180
:10025000119601900D928A95E1F7FE013196ABE976
:10026000B0E0CE01099602C021912D93E817F9075D
:10027000D9F77894C85FCDBFDF91CF9108950F93E0
:100280001F93CF93DF930BE910E0C0E0D0E0F801BB
:100290008081882369F081508083811109C0FE012B
:1002A000EE0FFF1FEA5DFF4F85919491FC010995C8
:1002B00021960F5F1F4FC830D10549F7DF91CF91CD
:1002C0001F910F910895B0DF809198008823E1F38A
:0C02D00010929800D4DFF8CFF894FFCF14
:1002DC00000000000100010000000000010000000F
:1002EC0000000000010001000000000000000100FF
:1002FC0000000100000001000000010000000000EF
:08030C00020305070B0D11139C
:00000001FF
