:1000000012C01FC01EC01DC01CC01BC045C019C0EF
:1000100018C017C016C015C014C013C012C011C03C
:1000200010C00FC00EC011241FBECFEDCDBF10E019
:10003000A0E6B0E001C01D92A136B107E1F714D0EF
:100040004EC0DECF07C0E9EFF0E03197F1F700C016
:10005000000081508111F7CF089510BE84E083BF66
:1000600089B7826089BF0895F8DF8B988C9A8D9A42
:10007000949A95988FEFE6DF9498959A8FEFE2DF48
:100080008B9A8C988D9A939A95988FEFDBDF939843
:10009000959A8FEFD7DFE9CF1F920F920FB60F928D
:1000A00011248F938091600080FD939A80FF939834
:1000B000809160008695817080FD949A80FF94986D
:1000C0008091600082FB882780F980FD959A80FFEF
:1000D00095988F910F900FBE0F901F901895F894E0
:0200E000FFCF50
:00000001FF
