:1000000012C02AC029C028C027C026C025C024C0CD
:1000100023C022C021C020C01FC01EC01DC01CC0E4
:100020001BC01AC019C011241FBECFEDCDBF10E0F8
:10003000A0E6B0E0E6E5F1E002C005900D92A0393F
:10004000B107D9F710E0A0E9B0E001C01D92A139D5
:10005000B107E1F76ED07DC0D3CF07C0E9EFF0E084
:100060003197F1F700C0000081508111F7CF08955A
:10007000892B19F4CFEFD0E002C0CBE4D0E08C9A0A
:100080008D9A8C2FEADF9498959A8C2FE6DF9598BD
:10009000949AF7CF91B321E030E0082E01C0220FEF
:1000A0000A94EAF7672B21F42095292321BB0895B0
:1000B000922B91BB0895CF93DF932FEF21BBEC01DF
:1000C00084E0CC0FDD1F8A95E1F7C05ADF4F6881CD
:1000D000798182E090E0DEDF6A817B8183E090E0DD
:1000E000D9DF6C817D8184E090E0D4DF6E817F81F7
:1000F00085E090E0CFDF888580FD929A80FF92981E
:100100008A8580FD939A80FF93988C8580FD949AD0
:1001100080FF94988E8580FD959A80FF9598DF9159
:10012000CF9108951FBC84E08EBD89B7806889BFD8
:1001300008958FEF92DF80E090E0BDDF8FEF8DDFDD
:1001400081E090E0B8DF8FEF88DF82E090E0B3DFFE
:06015000F0CFF894FFCF90
:100156000000000001000100000000000100000096
:100166000000000001000100000000000000010086
:100176000000010000000100000001000000000076
:00000001FF
