:1000000012C01FC01EC01DC01CC047C01AC019C0EE
:1000100018C017C016C015C014C013C012C011C03C
:1000200010C00FC00EC011241FBECFEDCDBF10E019
:10003000A0E6B0E001C01D92A136B107E1F714D0EF
:100040004FC0DECF07C0E9EFF0E03197F1F700C015
:10005000000081508111F7CF08951FBC84E08EBD50
:1000600089B7806889BF0895F8DF78948B988C9A57
:100070008D9A949A95988FEFE5DF9498959A8FEFE3
:10008000E1DF8B9A8C988D9A939A95988FEFDADFAF
:100090009398959A8FEFD6DFE9CF1F920F920FB604
:1000A0000F9211248F938091600080FD939A80FFBE
:1000B0009398809160008695817080FD949A80FF6E
:1000C00094988091600082FB882780F980FD959A42
:1000D00080FF95988F910F900FBE0F901F901895ED
:0400E000F894FFCFC2
:00000001FF
