:1000000012C02AC029C028C027C0A5C025C024C04E
:1000100023C022C021C020C01FC01EC01DC01CC0E4
:100020001BC01AC019C011241FBECFEDCDBF10E0F8
:10003000A0E6B0E0E0EAF1E002C005900D92A03940
:10004000B107D9F710E0A0E9B0E001C01D92A139D5
:10005000B107E1F76ED0A2C0D3CF07C0E9EFF0E05F
:100060003197F1F700C0000081508111F7CF08955A
:10007000892B19F4CFEFD0E002C0CBE4D0E08C9A0A
:100080008D9A8C2FEADF9498959A8C2FE6DF9598BD
:10009000949AF7CF91B321E030E0082E01C0220FEF
:1000A0000A94EAF7672B21F42095292321BB0895B0
:1000B000922B91BB0895CF93DF932FEF21BBEC01DF
:1000C00084E0CC0FDD1F8A95E1F7C05ADF4F6881CD
:1000D000798182E090E0DEDF6A817B8183E090E0DD
:1000E000D9DF6C817D8184E090E0D4DF6E817F81F7
:1000F00085E090E0CFDF888580FD929A80FF92981E
:100100008A8580FD939A80FF93988C8580FD949AD0
:1001100080FF94988E8580FD959A80FF9598DF9159
:10012000CF9108951FBC84E08EBD89B7806889BFD8
:100130000895F8DF78948AE090DF80E090E0BBDFFC
:100140008AE08BDF81E090E0B6DF8AE086DF82E044
:1001500090E0B1DFF0CF1F920F920FB60F921124F3
:100160008F938091900080FD929A80FF9298809169
:1001700090008695817080FD939A80FF939880917E
:10018000900082FB882780F980FD949A80FF9498E4
:100190008F910F900FBE0F901F901895F894FFCF7E
:1001A000000000000100010000000000010000004C
:1001B000000000000100010000000000000001003C
:1001C000000001000000010000000100000000002C
:00000001FF
