:1000000012C022C021C020C01FC01EC01DC01CC005
:100010001BC01AC019C018C017C016C015C014C024
:1000200013C012C011C011241FBECFEDCDBF10E010
:10003000A0E6B0E0EAE2F4E002C005900D92AC3A2E
:10004000B107D9F7DAD0EFC1DBCF07C0E9EFF0E0B5
:100050003197F1F700C0000081508111F7CF08956A
:10006000811102C0CFEF01C0CBE48C9A8D9A8C2F06
:10007000ECDF9498959A8C2FE8DF9598949AF7CFB7
:1000800091B321E030E0082E01C0220F0A94EAF774
:10009000611104C02095292321BB0895922B91BBA7
:1000A0000895CF93DF9311BA12BAC82FD0E083E03E
:1000B000CC0FDD1F8A95E1F7C05ADF4F688182E0DF
:1000C000DFDF698183E0DCDF6A8184E0D9DF6B8177
:1000D00085E0D6DF8C8180FD929A80FF92988D8199
:1000E00080FD939A80FF93988E8180FD949A80FF83
:1000F00094988F8180FD959A80FF9598DF91CF919C
:100100000895833081F028F4813049F08230E9F598
:1001100008C08530A1F068F08630B9F51EC084E0D3
:10012000C0CF80E02BC080E0BCDF83E08EDF84E0C6
:1001300025C080E0B6DF83E088DF82E009C080E090
:10014000B0DF83E082DF82E0ACDF83E07EDF84E04B
:10015000A8DF83E07ADF86E011C080E0A2DF83E0E1
:1001600074DF81E09EDF83E070DF82E09ADF83E06E
:100170006CDF86E096DF83E068DF87E092DF83E074
:1001800064DF88E08EDF83E060CF0895CF93C82FCF
:100190005CDF80E086DF8C2F58DF81E082DF8C2FF0
:1001A00054DF82E07EDF8C2F50DF83E07ADF8C2FFC
:1001B0004CDF84E076DF8C2F48DF85E072DF8C2F08
:1001C00044DF86E06EDF8C2F40DF87E06ADF8C2F14
:1001D0003CDF88E0CF9165CF80E090E0B0D08F3FEA
:1001E00009F48AEA90E0A0D09BD0AC01662757FDC5
:1001F0006095762F80E090E0AAC0EEDFC5E185E053
:10020000C5DF85E022DFC150D1F78AD06AE979E104
:1002100005D0C62FCF5F8C2F74DFFDCF97FB072E45
:1002200016F4009406D077FD08D00BD007FC05D05B
:100230003EF4909581959F4F0895709561957F4FFD
:100240000895AA1BBB1B51E107C0AA1FBB1FA6171D
:10025000B70710F0A61BB70B881F991F5A95A9F76F
:1002600080959095BC01CD0108958F929F92AF9299
:10027000BF92CF92DF92EF92FF92CF93DF93C82F7E
:10028000D92F688179818A819B81611571058105EA
:10029000910521F464E279ED8BE597E02DE133EFF0
:1002A00041E050E083D0822E932EA42EB52E27EA73
:1002B00031E440E050E061D0C62ED72EE82EF92E72
:1002C0002CEE34EF4FEF5FEF9B2D8A2D792D682DAB
:1002D00054D0462F572F682F792FC40ED51EE61EF7
:1002E000F71EF7FE06C081E0C81AD108E10880E8D1
:1002F000F80AC882D982EA82FB82E894D7F8EE2411
:10030000FF248C2D9D2DDF91CF91FF90EF90DF90FA
:10031000CF90BF90AF909F908F900895A6DF0895E3
:1003200088EA90E0A2DF0895A0E0B0E08093A80002
:100330009093A900A093AA00B093AB000895E1990F
:10034000FECF1FBA8EBBE09A99278DB30895242F54
:1003500007D0252F05D000C002D0272F01C0262F9F
:10036000E199FECF1CBA1FBA8EBB2DBB0FB6F89415
:10037000E29AE19A0FBE01960895FF27EE27BB2768
:10038000AA2760FF04C0A20FB31FE41FF51F220FAE
:10039000331F441F551F969587957795679589F765
:1003A0000097760771F7CF01BD010895052E97FBE1
:1003B00016F4009406D057FD0CD013D007FC09D0DA
:1003C0007EF490958095709561957F4F8F4F9F4FEC
:1003D000089550954095309521953F4F4F4F5F4F71
:1003E0000895A1E21A2EAA1BBB1BFD010DC0AA1F76
:1003F000BB1FEE1FFF1FA217B307E407F50720F08E
:10040000A21BB30BE40BF50B661F771F881F991F08
:100410001A9469F760957095809590959B01AC0151
:0A042000BD01CF010895F894FFCF4D
:10042A0000000101000001000000010100000001BC
:10043A0000010001000100000001000100000001AC
:10044A00000101000000010001000001010000009C
:10045A00000101000001000001000100010000008C
:0C046A0001010000010000000100000082
:00000001FF
