:1000000012C017C016C015C014C013C012C011C052
:1000100010C00FC00EC00DC00CC00BC00AC009C07C
:1000200008C007C006C011241FBECFEDCDBF15D03C
:1000300025C0E6CF811101C095980895811101C0B6
:10004000959A089507C0E9EFF0E03197F1F700C005
:10005000000081508111F7CF08958D9A8C9A959860
:10006000949880E0E7DF8FEFEDDF8FEFEBDF80E04C
:10007000E5DF8FEFE7DF8FEFE5DFF3CFF894FFCF1A
:00000001FF
