:1000000012C02AC029C028C027C091C025C024C062
:1000100023C022C021C020C01FC01EC01DC01CC0E4
:100020001BC01AC019C011241FBECFEDCDBF10E0F8
:10003000A0E6B0E0E6EDF1E002C005900D92A83A2E
:10004000B107D9F710E0A8EAB0E001C01D92A93AC3
:10005000B107E1F78FD0BDC0D3CF07C0E9EFF0E023
:100060003197F1F700C0000081508111F7CF08955A
:10007000892B19F4CFEFD0E002C0CBE4D0E08C9A0A
:100080008D9A8C2FEADF9498959A8C2FE6DF9598BD
:10009000949AF7CF91B321E030E0082E01C0220FEF
:1000A0000A94EAF7672B21F42095292321BB0895B0
:1000B000922B91BB0895CF93DF93EC0183E0CC0F9B
:1000C000DD1F8A95E1F7C05ADF4F688170E082E05A
:1000D00090E0E0DF698170E083E090E0DBDF6A813F
:1000E00070E084E090E0D6DF6B8170E085E090E026
:1000F000D1DF8C8180FD929A80FF92988D8180FD66
:10010000939A80FF93988E8180FD949A80FF9498B3
:100110008F8180FD959A80FF9598DF91CF9108950A
:100120001FBC84E08EBD89B7806889BF08951F9287
:100130000F920FB60F9211248F938091A80080FD2B
:10014000929A80FF92988091A8008695817080FD98
:10015000939A80FF93988091A80082FB882780F96A
:1001600080FD949A80FF94988F910F900FBE0F900E
:100170001F901895D5DF8FE570DF80E090E09BDF62
:100180008FE56BDF81E090E096DF8FE566DF82E050
:1001900090E091DF8FE561DF83E090E08CDF8FE519
:1001A0005CDF84E090E087DF8FE557DF85E090E05B
:1001B00082DF8FE552DF86E090E07DDF8FE54DDF67
:1001C00087E090E078DF8FE548DF88E090E073DF3C
:0601D000D2CFF894FFCF2E
:1001D6000000010100000100000001010000000113
:1001E6000001000100010000000100010000000103
:1001F60000010100000001000100000101000000F3
:1002060000010100000100000100010001000000E2
:080216000101000001000000DD
:00000001FF
